:020000040000fa
:080000000002040000000000f2
:020000040000fa
:100400000fd72000007f22000001880000000000bc
:100410000a00070011000700000020000000e000b3
:100420000200320000000200000000007a450200d5
:10043000000000000040da000000fe004440a90077
:10044000404a20000000e0000300320000002000cd
:10045000a00188004440a80000000600202e2300d0
:10046000010020001500370062004000e0804800d5
:10047000910188009001ba0062004000e0804800cd
:10048000910188009002ba0062004000e0804800bc
:100490000002eb006028e10004003a000059eb0084
:1004a0008301e900fdff3e00040037006128e10000
:1004b000010032000082eb00050007009101880076
:1004c0001001ba000200e000e7ff3a00000005005a
:1004d000910188008002780062004000e0804800be
:1004e0003559ba008301e900080032002559ba00e5
:1004f0008301e900050032000400e000f4ff32004f
:1005000015d9ba008301e900f1ff3a0000000600a6
:10051000e6070400000000001c08040000000000c2
:1005200092090400000000005a19040000000000b5
:10053000460b0400000000004c0d04000000000009
:10054000e60e040000000000cc11040000000000d2
:10055000e614040000000000fe1604000000000085
:020000040000fa
:100008009046000090460000904600009046000090
:100018009046000090460000904600009046000080
:100028009046000090460000904600009046000070
:100038009046000090460000904600003c400000ba
:100048005e40000090460000904600009046000088
:100058009046000090460000904600009046000040
:100068009046000090460000904600009046000030
:100078009046000090460000904600009046000020
:100088009046000090460000904600008040000026
:100098009046000090460000904600009046000000
:1000a80090460000884600009046000090460000f8
:1000b80090460000904600009046000090460000e0
:1000c80090460000904600009046000090460000d0
:1000d80090460000904600009046000090460000c0
:1000e80090460000904600009046000090460000b0
:1000f80090460000904600009046000090460000a0
:10010800904600009046000090460000904600008f
:10011800904600009046000090460000904600007f
:10012800904600009046000090460000904600006f
:10013800904600009046000090460000904600005f
:10014800904600009046000090460000904600004f
:10015800904600009046000090460000904600003f
:10016800904600009046000090460000904600002f
:10017800904600009046000090460000904600001f
:10018800904600009046000090460000904600000f
:1001980090460000904600009046000090460000ff
:1001a80090460000904600009046000090460000ef
:1001b80090460000904600009046000090460000df
:1001c80090460000904600009046000090460000cf
:1001d80090460000904600009046000090460000bf
:1001e80090460000904600009046000090460000af
:0801f800904600009046000053
:020000040000fa
:10020800904600009046000090460000904600008e
:10021800904600009046000090460000904600007e
:10022800904600009046000090460000904600006e
:100238009046000090460000904600003c400000b8
:100248005e40000090460000904600009046000086
:10025800904600009046000090460000904600003e
:10026800904600009046000090460000904600002e
:10027800904600009046000090460000904600001e
:100288009046000090460000904600008040000024
:1002980090460000904600009046000090460000fe
:1002a80090460000884600009046000090460000f6
:1002b80090460000904600009046000090460000de
:1002c80090460000904600009046000090460000ce
:1002d80090460000904600009046000090460000be
:1002e80090460000904600009046000090460000ae
:1002f800904600009046000090460000904600009e
:10030800904600009046000090460000904600008d
:10031800904600009046000090460000904600007d
:10032800904600009046000090460000904600006d
:10033800904600009046000090460000904600005d
:10034800904600009046000090460000904600004d
:10035800904600009046000090460000904600003d
:10036800904600009046000090460000904600002d
:10037800904600009046000090460000904600001d
:10038800904600009046000090460000904600000d
:1003980090460000904600009046000090460000fd
:1003a80090460000904600009046000090460000ed
:1003b80090460000904600009046000090460000dd
:1003c80090460000904600009046000090460000cd
:1003d80090460000904600009046000090460000bd
:1003e80090460000904600009046000090460000ad
:0803f800904600009046000051
:020000040000fa
:1005600053500000454e000043450000520000007b
:10057000454e00005445000052200000504100004c
:1005800053530000574f0000524400002020000049
:100590000050000041530000535700004f5200002c
:1005a000442000004f4b0000004900004e56000060
:1005b000414c00004944000020500000415300001d
:1005c000535700004f520000440000004953000000
:1005d0004f4c000041540000494f00004e200000e5
:1005e0004d4f0000444500000054000045530000fa
:1005f000542000004d4f000044450000005300000f
:1006000045540000544900004e47000000480000d7
:1006100049530000544f000052590000005a000096
:100620004f4e000045200000495300004f4c000091
:1006300041540000494f00004e000000484f0000a8
:100640004f5400004552000020490000534f000065
:100650004c410000544900004f4e0000004500008e
:100660004e54000045520000205a00004f4e00003a
:10067000452000004e4f00003a00000020200000fe
:10068000202000002059000045530000202f0000ca
:10069000204e00004f2000002020000000490000f4
:1006a000534f00004c41000054450000440000003e
:1006b00041430000544900005641000054450000e9
:1006c00044000000434f00004d4d00004f4e00001d
:1006d000204800004f4f0000544500005200000029
:1006e000574100004c4b00002054000045530000cf
:1006f000540000004d4f0000444500004c20000015
:1007000053450000540000004d4f000044450000d8
:100710004c200000310000004d4f00004445000017
:100720004c2000003200000044410000544500000d
:10073000204100004e44000020540000494d0000bc
:10074000450000004c4f00004341000054490000a8
:100750004f4e0000204e0000414d000045000000bb
:100760005041000053530000574f00005244000016
:1007700020260000204c00004f4700004f000000e2
:10078000444100005445000000540000494d000061
:100790004500000043480000414e0000474500006e
:1007a0002050000041530000535700004f520000fa
:1007b0004400000043480000414e0000474500004f
:1007c000204c00004f4700004f4e0000414d0000fc
:1007d000450000004f4c0000442000005041000044
:1007e00053530000574f000052440000004e0000d9
:1007f00045570000205000004153000053570000af
:100800004f520000440000005550000044410000d9
:1008100054450000440000004c4f0000474f0000ca
:10082000204e0000414d00004520000043480000dc
:10083000414e0000474500004400000056490000ba
:1008400045570000204100004c4c000020450000ae
:10085000564500004e54000053000000444500007f
:100860004c45000054450000204100004c4c000065
:1008700020450000564500004e5400005300000083
:10088000414c0000415200004d530000005a00004e
:100890004f4e00004520000046410000554c00002e
:1008a00054530000005000004f5700004552000014
:1008b00020460000415500004c5400005300000049
:1008c0005a4f00004e4500002046000049520000eb
:1008d000452f0000414c0000415200004d00000037
:1008e00045560000414300005541000054450000ba
:1008f000004300004f4d00002e200000484f000034
:100900004f54000045520000204f00004e000000f0
:10091000504100004e4500004c20000052450000b0
:1009200053450000540000005a4f00004e4500009f
:10093000204f0000504500004e0000005a4f0000bc
:100940004e45000020530000484f00005254000064
:10095000005a00004f4e000045000000434f0000c9
:100960004d2e0000484f00004f540000455200003b
:1009700020460000415500004c540000004d00008e
:10098000414900004e53000020460000414900004c
:100990004c00000042410000545400004552000049
:1009a0005920000046410000494c00000042000070
:1009b000415400005445000052590000204c0000f2
:1009c0004f570000005a00004f4e00004520000025
:1009d0004e4f00002000000044410000544500003c
:1009e0003a200000303000002f300000302f00008f
:1009f000303000002020000000540000494d00006d
:100a0000453a000020300000302f00003030000058
:100a10002020000020200000200000004c4f00009b
:100a200043410000544900004f4e00002053000095
:100a3000455400002020000020200000005a000043
:100a40004f4e0000452000004e4f000020310000b6
:100a500020200000202000002020000020000000b6
:100a60005a4f00004e450000204e00004f2000006d
:100a70003220000020200000202000002020000064
:100a8000005a00004f4e0000452000004e4f00006d
:100a90002033000020200000202000002020000043
:100aa000200000005a4f00004e450000204e00007c
:100ab0004f200000342000002020000020200000f3
:100ac00020200000005a00004f4e0000452000008a
:100ad0004e4f0000203500002020000020200000a4
:100ae00020200000200000005a4f00004e4500006a
:100af000204e00004f200000362000002020000083
:100b00002020000020200000005a00004f4e00006e
:100b1000452000004e4f000020370000202000003c
:100b20002020000020200000200000005a4f00007c
:100b30004e450000204e00004f20000038200000ed
:100b4000202000002020000020200000005a00008b
:100b50004f4e0000452000004e4f0000203900009d
:100b600020200000202000002020000020000000a5
:100b70005a4f00004e450000204e00004f2000005c
:100b80003130000020200000202000002020000044
:100b9000005a00004f4e0000452000004e4f00005c
:100ba0002031000031200000202000002020000023
:100bb000200000005a4f00004e450000204e00006b
:100bc0004f200000313200002020000020200000d3
:100bd00020200000005a00004f4e00004520000079
:100be0004e4f000020310000332000002020000084
:100bf00020200000200000005a4f00004e45000059
:100c0000204e00004f200000313400002020000062
:100c10002020000020200000005a00004f4e00005d
:100c2000452000004e4f000020310000352000001c
:100c30002020000020200000200000005a4f00006b
:100c40004e450000204e00004f20000031360000cd
:100c5000202000002020000020200000005a00007a
:100c60004f4e0000452000004e4f00002031000094
:100c7000372000002020000020200000200000007d
:100c80005a4f00004e450000204e00004f2000004b
:100c9000313800002020000020200000202000002b
:100ca000005a00004f4e0000452000004e4f00004b
:100cb000203100003920000020200000202000000a
:100cc000200000005a4f00004e450000204e00005a
:100cd0004f200000323000002020000020200000c3
:100ce00020200000005a00004f4e00004520000068
:100cf0004e4f000020320000312000002020000074
:100d000020200000200000005a4f00004e45000047
:100d1000204e00004f200000323200002020000052
:100d20002020000020200000005a00004f4e00004c
:100d3000452000004e4f000020320000332000000c
:100d40002020000020200000200000005a4f00005a
:100d50004e450000204e00004f20000032340000bd
:100d60002020000020200000202000000043000080
:100d7000484100004e470000452000004c4f000055
:100d8000474f0000204e0000414d0000450000008c
:100d9000202000004c4f0000474f0000204300007f
:100da000484100004e47000045440000202000005c
:100db00000000000e60700001c0800009209000087
:100dc000920900005a1900009209000092090000df
:100dd000460b00004c0d0000e60e0000cc11000098
:100de00092090000e6140000fe16000020500000ea
:100df00041530000535700004f52000044200000b0
:100e0000455800005049000052450000442e0000a3
:100e10002e210000004900004e560000414c000009
:100e20004944000020500000415300005357000087
:100e30004f52000044000000494e0000564100009f
:100e40004c49000044200000494e0000505500006d
:100e500054000000444100005445000020540000ac
:100e6000494d00004520000053450000540000009b
:100e70000003000003060000010400000602000059
:100e800005000000030500001f1c00001f1e0000dd
:100e90001f1e00001f1f00001e1f00001e1f00005d
:080ea000563a000000000000ba
:020000040000fa
:100ea8000000fa000040eb00afecb7000080fa0049
:100eb800000006000000fa00afccbf000080fb0075
:100ec800a16d28000000400060807800000001004b
:100ed8000080fa00000006000000fa00afccbf0056
:100ee800e24f500008003a00e06480000000e00093
:100ef80005003a0010002000e06488006000b80097
:100f0800c0648800d1648800e06480000000e000cc
:100f180020003200c2648000d3648000900020006a
:100f280001002000800f5100818f59000c003e0005
:100f380096ccbf000004e00009003a00c0648000bd
:100f4800d164800061004000e0804800c0648800ef
:100f5800d164880010c0b300211d07000d003700c0
:100f680010c0b30096ecb70010c0b3001c1d0700fa
:100f780000ccb3007e1a0700606f2800da1a070059
:100f88006000b800c0648800d16488000000eb00ed
:100f9800e06488000080fa00000006000000fa0003
:100fa80096ccbf000080fb000080fa00000006001d
:100fb8000000fa0010c0b30096ecb7000080fa00f9
:100fc800000006000000fa0000c8b300681a070015
:100fd80060c52000c41a07005c0c07008040780038
:100fe800d0c4b30080cf50000f003a004d0c07006a
:100ff8000004e0000c003200e8ff0700e14f500059
:1010080005003a0010c0b300afecb70000ccb30045
:10101800571a07000400370000ccb300541a070021
:1010280020c0b300afecb7000080fa000000060053
:101038000200fa00881f78003a0c070094ecb70009
:10104800f0c9bf000080fb00000f78001e00780088
:10105800e50f50009e0032001e007800e50f50009a
:1010680007003c001e007800e10f50000b00320022
:101078001e007800e20f500013003200a400370071
:101088001e007800e70f50009d0032001e00780017
:10109800e80f5000830032009d00370000c8b300fd
:1010a800331a070010002000731a070050ccb30051
:1010b8002f1a070020c0b300f0e9b7000040eb008a
:1010c800f1e9b70092003700016580003006200082
:1010d800808f500004003e00006580000000e8009a
:1010e800006588000c0037000000eb0000658800f0
:1010f80010c0b3001e1a07000040eb00a2ecb700b6
:1011080010c0b300f0e9b7000040eb00afecb70047
:101118000040eb00b0190700f0c0b300141a070034
:1011280094ccbf00e14f500079003a00070c07004b
:1011380093ecb70031c9200091407800f0c2b300a9
:1011480080cf50005300360031c92000914078000c
:1011580090c3b30080cf50004e003e00f1c9bf00dd
:10116800e34f500009003e00f1c9bf008080fb003a
:1011780032c9200012417800609c200000804000a5
:101188000248780093ccbf00171a0700f1c9bf00c6
:10119800e24f50003c0036000040eb009eecb700e8
:1011a800130037009eccbf000084fb009eccbf001c
:1011b8000080fb000080e800d81d07008040780010
:1011c80000cb200000004400014878009eccbf00fe
:1011d8008080fb0000cb2000008040001040780099
:1011e800011a07009eccbf000040e8009eecb70043
:1011f8009eccbf00e34f5000eaff3600619c200000
:1012080091407800b0ccbf0080cf500016003a0063
:10121800719c200091407800b1ccbf0080cf500075
:1012280011003a00819c200091407800b2ccbf00a8
:1012380080cf50000c003a00919c2000914078002b
:10124800b3ccbf0080cf500007003a00c0c0b30045
:10125800c719070010c0b300c519070080c0b30044
:10126800f0e9b70008003700c0c0b300c019070094
:1012780070c0b300f0e9b7000040eb00f1e9b70037
:1012880010c0b300ba190700f1c9bf000040e80058
:10129800f1e9b7000000eb0000658800a60b070025
:1012a8001b00370020c0b300afecb7000040eb00d4
:1012b800f1e9b70010c0b300ad1907002003200002
:1012c800fd0707000000eb000065880010003700ec
:1012d800c0122000f8070700e842a900803e20005d
:1012e800f507070010c0b300a119070010c0b3002c
:1012f800f0e9b70010c0b300afecb7000400370046
:10130800b0702800f819070050c0b300f0e9b70022
:101318004f0478000080fa00000006000400fa007c
:101328000040eb00004f7800c0c0b30090190700e0
:101338007c0b070094ecb700afccbf000080fb002b
:10134800a06588000040eb0092ecb70094ccbf0089
:10135800e14f50008a003a007c0b070093ecb7007d
:1013680093ccbf000080fb001007980040042000c9
:101378009e009000808f5000120032004004200030
:101388009e009000808f500005003c003004200033
:101398009e009000808f50004e003200730037008e
:1013a800500420009e009000808f50002c003200d6
:1013b800500520009e009000808f500016003200db
:1013c8006a00370095ccbf000081fb00a065800053
:1013d8006a00b9008080e800809320000080400007
:1013e800104078000080fb000000e900800f5100e9
:1013f80004003d0095ccbf000040e80095ecb70024
:10140800020037000040eb0095ecb70010c0b300b5
:10141800571907005500370095ccbf000004e000bd
:101428000400320095ccbf000040e90095ecb700fd
:1014380008003700a06580006a00b9008080e800d5
:101448008093200000804000104078000040e900b0
:1014580095ecb70010c0b3004519070043003700ea
:1014680010c0b30092ecb700a06580006a00b90014
:10147800e6004000809320000080400010007800c3
:101488000000e0003900320010c0b300381907002e
:10149800a06580006a00b900e60040008093200043
:1014a800008040009000780095ccbf000080fb00d1
:1014b800000040000080400010007800afecb7004a
:1014c8000040eb0095ecb70010c0b300f0e9b7009e
:1014d80026003700a06580006a00b900e6004000d9
:1014e800809320000080400010007800e20f500038
:1014f80014003200a06580006a00b900e8004000ce
:101508008093200000804000100078000000e00078
:101518000c00320010c0b30015190700a065800048
:101528006a00b900e8004000809320000080400075
:1015380010007800afecb70010c0b300004f78007f
:101548000a00370010c0b300091907000040eb007b
:1015580095ecb70010c0b300004f78000040eb00d6
:10156800afecb7000040eb009b18070080c5b30044
:1015780093ecb7000040eb0094ecb700ee0a0700cc
:1015880092ccbf000004e0003c003a001e04e000da
:101598003a003a0000c8b300f5180700e0c3b300ea
:1015a80011190700a06580006a00b900e400400036
:1015b80080932000008040009000780095ccbf0008
:1015c8000080fb0000004000008040001000780010
:1015d8002919070095ccbf000080fb000001e80036
:1015e800a06580006a00b9008080e8008093200030
:1015f80000804000104078000080fb00800f510000
:101608000d003a0000ccb300d918070000c2b3009f
:10161800f5180700a06580006a00b900e4004000e2
:1016280080932000008040001000780010007800af
:10163800111907001100370000ccb300cc180700bf
:1016480000c2b300e8180700a06580006a00b9006e
:10165800e400400080932000008040009000780063
:1016680095ccbf000080fb000000400000804000d7
:101678000080e80010007800ff1807000080fa00da
:10168800000006000200fa00a60a070094ecb70062
:10169800f0c9bf000080fb00000f78001e00780032
:1016a800e30f5000a00032001e007800e30f500046
:1016b80007003c001e007800e10f50000b003200cc
:1016c8001e007800e20f500013003200ee003700d1
:1016d8001e007800e50f5000db0032001e00780085
:1016e800e70f5000e4003200e700370000c8b300fd
:1016f8009f18070080002000df18070000ccb30007
:101708009b180700a0002000db18070020c0b300ca
:10171800f0e9b700dc003700f0c0b3009418070008
:1017280094ccbf00e14f5000d7003a00870a070069
:1017380093ecb70031c9200091407800f0c2b300a3
:1017480080cf50000500360031c920009140780054
:1017580090c3b30080cf50000a00360031c9200082
:101768009140780050c4b30080cf5000050032008b
:1017780031c920009140780030c4b30080cf5000b8
:101788005f003a00b7ccbf00e14f50001c003e009c
:1017980031c9200091407800f0c2b30080cf5000da
:1017a8000f00360031c920009140780090c3b30083
:1017b80080cf50000a003e00b7ccbf008080fb00fd
:1017c80032c9200012417800409c2000008040006f
:1017d8000248780093ccbf00831807000800370040
:1017e800c0c0b3006218070070c0b300f0e9b700ca
:1017f8000040eb00b7ecb70010c0b3005c1807005e
:1018080031c920009140780050c4b30080cf500007
:1018180028003a00b7ccbf00e14f500009003e0055
:10182800c0c0b3005218070070c0b300f0e9b70099
:101838000040eb00b7ecb70010c0b3004c1807002d
:101848002b003700c4c9bf000080fb006a00b90044
:1018580080407800c5c9bf0080c0400000c1b30007
:1018680000c05000b6ecb700b6ccbf00e94f50003e
:1018780009003600c0c0b3003d18070070c0b300af
:10188800f0e9b7000040eb00b7ecb70010c0b300b8
:101898003718070016003700c0c0b3003418070017
:1018a80010c0b3003218070030c0b300f0e9b70029
:1018b8000f00370031c920009140780030c4b300d0
:1018c80080cf50000a003a00c0c0b30028180700b3
:1018d80010c0b300f0e9b7000040eb00b7ecb70068
:1018e80010c0b3002218070030c0b300afecb70037
:1018f800b7ccbf000040e800b7ecb70008003700dd
:10190800c0c0b3001a18070070c0b300f0e9b700f0
:101918000040eb00b7ecb70010c0b3001418070084
:10192800050a070058003700b6ccbf000080fb004e
:101938008000400060c02000008040001000780057
:101948004600de0061406000e14f50001f003a0091
:10195800b6ccbf000080fb008000400060c02000c3
:1019680080804000110078000060a10080087800a5
:10197800b6ccbf000080fb004006b00080007800b5
:1019880010042000c41b070000c8b300f8170700a4
:10199800e002200038180700c4c9bf001218070069
:1019a800c5c9bf001018070000ccb300f017070026
:1019b800d0002000301807000040eb00b7ecb7005b
:1019c80050c0b300f0e9b7002f003700b6ccbf0015
:1019d8000080fb008000400060c020008080400044
:1019e800110078000060a00080087800b6ccbf0025
:1019f8000080fb004006b0008000780090042000c2
:101a0800a51b070000c8b300d9170700e002200093
:101a180019180700c4c9bf00f3170700c5c9bf00dc
:101a2800f117070000ccb300d1170700c000200051
:101a3800111807000040eb00b7ecb70050c0b30026
:101a4800f0e9b70010003700c01220001a0607009e
:101a5800e842a900c05d20001706070010c0b300c7
:101a6800c31707000040eb00b7ecb70010c0b30085
:101a7800f0e9b70004003700c07128001a18070001
:101a880050c0b300f0e9b7000080fa00000006007b
:101a98000200fa00a309070094ecb700f0c9bf00e0
:101aa8000080fb00000f78001e007800e30f500054
:101ab8008c0032001e007800e30f500007003c0045
:101ac8001e007800e10f50000b0032001e00780065
:101ad800e20f50001d003200b80037001e007800e9
:101ae800e50f5000a50032001e007800e70f5000f7
:101af800ae003200b100370000c8b3009c170700e1
:101b080090002000dc17070000ccb30098170700ee
:101b1800b0002000d817070040ccb3009417070086
:101b2800b0c5b300b017070080ccb300901707000a
:101b3800d0c5b300ac17070010c0b300a3ecb700c2
:101b480020c0b300f0e9b7009c00370094ccbf0078
:101b5800e14f500099003a007c09070093ecb70068
:101b680031c9200091407800c0c4b30080cf500034
:101b78000f00320031c920009140780020c5b30021
:101b880080cf50000a00360031c92000914078000b
:101b980050c4b30080cf50000500320031c9200086
:101ba8009140780030c4b30080cf500045003a001f
:101bb80031c9200091407800c0c4b30080cf5000e4
:101bc80013003a00a0ccb3006917070000c2b300a5
:101bd80085170700d0ccb3006517070000c2b30013
:101be8008117070040ccb30061170700b0c5b300e8
:101bf8007d17070080ccb3005d170700d0c5b30080
:101c08007917070010c0b300a3ecb700170037001e
:101c180031c920009140780020c5b30080cf500022
:101c280012003a0040ccb3005117070000c2b300bd
:101c38006d17070080ccb3004d17070000c2b30032
:101c480069170700a0ccb30049170700b0c5b30057
:101c580065170700d0ccb30045170700d0c5b300ff
:101c68006117070020c0b300a3ecb70031c92000fa
:101c78009140780050c4b30080cf500005003a006e
:101c880010c0b3003a17070030c0b300f0e9b7003e
:101c98001200370031c920009140780030c4b300e9
:101ca80080cf50000d003a0010c0b300f0e9b70033
:101cb80010c0b3002e17070030c0b300afecb70058
:101cc80006003700c0c0b3002917070070c0b30072
:101cd800f0e9b70010c0b300251707001609070080
:101ce80036003700a3ccbf00e24f500010003a0086
:101cf8000040eb00feecb700d107200010042000e4
:101d0800e51a070000c8b30019170700e000200013
:101d18005917070000ccb30015170700d0002000a2
:101d28005517070050c0b300f0e9b700230037008b
:101d3800a3ccbf00e14f500020003a0010c0b30010
:101d4800feecb700d107200090042000d21a07004b
:101d580000c8b30006170700e00020004617070078
:101d680000ccb30002170700c0002000421707008c
:101d780050c0b300f0e9b70010003700c0122000cf
:101d88004d050700e842a900c05d20004a0507008c
:101d980010c0b300f616070010c0b300f0e9b70092
:101da80020c0b300afecb70004003700c0712800b2
:101db8004d17070050c0b300f0e9b7000080fa00e3
:101dc800000006000200fa00d608070094ecb700ed
:101dd80094ccbf00e14f500011003a00db08070027
:101de80093ecb70031c920009140780030c4b300ab
:101df80080cf50000a003a00c0c0b300dc160700cc
:101e080010c0b300f0e9b7000040eb00f1e9b700fb
:101e180010c0b300d616070050c0b300afecb7002f
:101e2800f0c9bf000080fb00000f78001e0078009a
:101e3800e30f5000aa0032001e007800e30f5000a4
:101e480007003c001e007800e10f50000e00320031
:101e58001e007800e20f50001a0032004a013700d5
:101e68001e007800e50f5000230132001e007800a4
:101e7800e50f5000390135001e007800e70f5000cb
:101e8800310132004001370000c8b300b81607001e
:101e9800f0022000f816070000ccb300b4160700c3
:101ea80000032000f416070020c0b300f0e9b700d3
:101eb80060c8b300ae1607000040eb00f1e9b700b8
:101ec80031013700f0c0b300a916070094ccbf0059
:101ed800e14f50002c013a009c08070093ecb70032
:101ee80031c9200091407800f0c2b30080cf500083
:101ef8007100360031c920009140780090c3b300ca
:101f080080cf50006c003e00f1c9bf00e94f50007f
:101f18001c003e00f1c9bf000081fb0093ccbf004c
:101f28008040780000cdb30000c0400080407800b9
:101f3800609c2000000041000148780093ccbf005d
:101f4800a9160700f1c9bf00e14f50000600320092
:101f5800f1c9bf00e34f500003003200f1c9bf00d0
:101f6800e74f500002003a0040c1b3008016070056
:101f7800f1c9bf00e54f500002003a0060ccb30041
:101f88007b160700f1c9bf00e84f50004600360035
:101f9800c6c9bf000080fb006a00b9008040780015
:101fa800c7c9bf0000c04000a8ecb700c8c9bf003f
:101fb8000080fb006a00b90080407800c9c9bf00f2
:101fc80000c04000a7ecb700cac9bf000080fb00f2
:101fd8006a00b90080407800cbc9bf0000c040004b
:101fe800a6ecb700ccc9bf000080fb006a00b900ae
:101ff80080407800cdc9bf0000c04000a5ecb70004
:10200800cec9bf000080fb006a00b900804078009c
:10201800cfc9bf0000c04000a4ecb700a8ccbf00e7
:102028000004e00011003200a8ccbf00ff4f5000b0
:102038000e003e00a7ccbf000004e0000b003200f9
:10204800a7ccbf00ec4f500008003e00a5ccbf0055
:10205800f74f500005003e0041ca2000914078002b
:10206800b0c3b30080cf500009003600c0c0b30031
:102078003f16070070c0b300f0e9b7000040eb005e
:10208800f1e9b70010c0b3003916070006003700a1
:10209800c0c0b3003616070010c0b30034160700de
:1020a80030c0b300f0e9b700f1c9bf000040e80054
:1020b800f1e9b70008003700c0c0b3002c160700cc
:1020c80070c0b300f0e9b7000040eb00f1e9b700d9
:1020d80010c0b3002616070017080700aa0037002b
:1020e8000000eb0030318800ec0c070027e6a80060
:1020f80027e6a800a8ccbf000080fb00a2002000b3
:10210800110009000280d8000080fb004400dd00b7
:1021180080407800a8ccbf000080fb00a20020000f
:10212800811f7800110009000280d80000017800a2
:1021380001007800cf00780000c0700010edb700f3
:1021480010c0b30014edb700a7ccbf000080fb009f
:10215800a2002000110009000280d8000080fb00c6
:102168004400dd0080407800a7ccbf000080fb0061
:10217800a2002000811f7800110009000280d80009
:102188000001780001007800cf00780000c07000de
:1021980011edb70010c0b30014edb700a6ccbf0016
:1021a8000080fb00a2002000110009000280d80076
:1021b8000080fb004400dd0080407800a6ccbf0012
:1021c8000080fb00a2002000811f78001100090098
:1021d8000280d8000001780001007800cf00780064
:1021e80000c0700012edb70010c0b30014edb700c6
:1021f800a5ccbf000080fb00a20020001100090050
:102208000280d8000080fb004400dd008040780098
:10221800a5ccbf000080fb00a2002000811f780031
:10222800110009000280d800000178000100780040
:10223800cf00780000c070000eedb70010c0b300ea
:1022480014edb700a4ccbf000080fb00a200200062
:10225800110009000280d8000080fb004400dd0066
:1022680080407800a4ccbf000080fb00a2002000c2
:10227800811f7800110009000280d8000001780051
:1022880001007800cf00780000c070000dedb700a5
:1022980010c0b30014edb7000040eb000cedb70020
:1022a80010c0b30014edb70010c0b3000fedb700b5
:1022b80010c0b30014edb700550c070027a6a900fd
:1022c8000040eb0014edb700a072280006160700c6
:1022d800c05d2000f80307000040eb00f1e9b700fb
:1022e80050c0b300f0e9b70086090700c05d2000c0
:1022f800f10307002400370000c8b3009c1507004d
:1023080060c52000f8150700c0122000ea03070086
:10231800e842a900c05d2000e703070010c0b30031
:10232800931507000040eb00f1e9b70010c0b300b7
:10233800f0e9b700c0c0b3008d15070050c0b30066
:10234800afecb70010003700c0712800e615070091
:1023580040c0b300f0e9b7000b003700e842a9001d
:10236800c05d2000d403070010c0b300801507002b
:102378000040eb00f1e9b70010c0b300f0e9b70086
:10238800c0c0b3007a1507000080fa0000000600fc
:102398000200fa00881f78006207070094ecb70073
:1023a80094ccbf00e14f500018003a0067070700bf
:1023b80093ecb70031c920009140780030c4b300d5
:1023c80080cf500011003a0010c0b3006815070014
:1023d800c0c0b3006615070010c0b300f0e9b7002d
:1023e8000040eb00f1e9b70010c0b30095ecb7006e
:1023f80050c0b300afecb7004f07070010c0b300e0
:102408005b150700c0c0b30059150700f0c9bf002d
:102418000080fb00000f78001e007800e40f5000d9
:10242800cf0032001e007800e40f50000a003c0084
:102438001e007800e20f50002e0032001e007800c7
:10244800e20f5000a0003c001e007800e10f500091
:102458000e003200580137001e007800e60f5000c9
:10246800dc0032001e007800e60f50003a0135000b
:102478001e007800e70f50004b0132001e00780064
:10248800e80f50001d0132004b0137000040eb00ff
:10249800aaecb70009003700aaccbf008080fb0077
:1024a800009d20008080400000c2b3008048780072
:1024b800aaccbf000040e800aaecb700aaccbf0035
:1024c800ef4f5000f4ff360000c8b300281507008e
:1024d800a00020006815070020c0b300f0e9b7008d
:1024e8000040eb00f1e9b7000040eb00abecb700af
:1024f80031013700f0c0b3001d15070094ccbf00b0
:10250800e14f50002c013a001007070093ecb70088
:1025180031c9200091407800f0c2b30080cf50004c
:102528004a00360031c920009140780090c3b300ba
:1025380080cf500045003e00f1c9bf00e14f500078
:102548000c003e00f1c9bf000081fb0093ccbf0026
:102558008040780000cdb30000c040008040780083
:10256800609c2000000041000148780093ccbf0027
:102578001d150700f1c9bf000004e0002f0032005c
:10258800c6c9bf000080fb006a00b900804078001f
:10259800c7c9bf0000c04000abecb700abccbf0060
:1025a8000004e00003003200abccbf00e94f50004c
:1025b80009003600c0c0b300ed14070070c0b300b6
:1025c800f0e9b7000040eb00f1e9b70010c0b30034
:1025d800e7140700190037000040eb00aaecb70029
:1025e80009003700aaccbf008080fb00009d2000b6
:1025f8008080400000c2b30080487800aaccbf00a9
:102608000040e800aaecb700aaccbf00ef4f50008a
:10261800f4ff3600c0c0b300d514070000ccb300e7
:10262800d314070030c0b300f0e9b70000ccb30002
:10263800cf140700c01220001f030700f1c9bf0014
:102648000040e800f1e9b7001d00370031c920005b
:102658009140780030c4b30080cf500012003a0097
:1026680010c0b300c2140700c0c0b300c0140700f4
:1026780010c0b300f0e9b7000040eb00f1e9b70083
:1026880010c0b30095ecb70050c0b300afecb70072
:10269800a906070010c0b300b5140700c0c0b300f6
:1026a800b314070006003700c0c0b300b014070019
:1026b80070c0b300f0e9b70010c0b300ac14070055
:1026c8009d060700bc0037000040eb00a9ecb700ee
:1026d80017003700a9ccbf000084fb00abccbf00bb
:1026e8000080fb00c400dd00a9ccbf000080fb0017
:1026f800008040003007b00088180700804078004c
:10270800009d20000000440001487800a9ccbf00cb
:102718008080fb00009d2000008040001040780071
:10272800b1140700a9ccbf000040e800a9ecb7002d
:10273800a9ccbf00ef4f5000e6ff360000ccb30035
:102748008b140700f0c0b300891407002003200091
:10275800d902070040c0b300f0e9b700960037007f
:1027680000ccb30082140700f0c0b3008014070047
:10277800ae06070060c0b300f0e9b7000040eb0008
:10278800aaecb7000d003700aaccbf000081fb00ff
:10279800aaccbf008080fb00009d20000080400084
:1027a8009040780010c820000000410001487800df
:1027b800aaccbf000040e800aaecb700aaccbf0032
:1027c800ef4f5000f0ff3600401f2000ba0207000c
:1027d8007900370094ccbf00e14f500076003a00f2
:1027e8005a06070093ecb70031c9200091407800e1
:1027f80050c4b30080cf500032003a000040eb00d4
:10280800aaecb7000d003700aaccbf000081fb007e
:10281800aaccbf008080fb0010c8200000804000c8
:1028280090407800009d2000000041000148780099
:10283800aaccbf000040e800aaecb700aaccbf00b1
:10284800ef4f5000f0ff36000040eb00aaecb70055
:1028580013003700abccbf000080fb00c400dd00d4
:10286800aaccbf000080fb00008040003007b00009
:1028780000017800aaccbf008080fb00009d2000ea
:1028880000804000104078000080fb008200780043
:1028980001180700aaccbf000040e800aaecb70066
:1028a800aaccbf00ef4f5000eaff3600220607000f
:1028b80010c0b3002e14070080c0b300f0e9b700c1
:1028c8003d00370031c920009140780030c4b30082
:1028d80080cf500038003a00c0c0b300241407006d
:1028e80070c0b300f0e9b7000040eb00f1e9b700b1
:1028f80010c0b3001e1407002f0037005006070051
:1029080000c8b3001a140700100320005a14070067
:1029180050c0b300f0e9b7000040eb00aaecb700e4
:1029280009003700aaccbf008080fb00009d200072
:102938008080400000c2b30080487800aaccbf0065
:102948000040e800aaecb700aaccbf00ef4f500047
:10295800f4ff360018003700c012200056020700a6
:10296800e842a900401f20005302070010c0b3002e
:10297800ff13070010c0b300f0e9b700c0c0b300f0
:10298800fb13070010c0b300f0e9b7000040eb00ec
:10299800f1e9b70010c0b300f5130700a0c0b300f9
:1029a800afecb70004003700c07128004e140700d0
:1029b80050c0b300f0e9b7004f0478000080fa0077
:1029c800000006000200fa00881f7800d5050700fd
:1029d80094ecb70094ccbf00e14f500011003a00ce
:1029e800da05070093ecb70031c920009140780060
:1029f80030c4b30080cf50000a003a00c0c0b30012
:102a0800db13070010c0b300f0e9b7000040eb008b
:102a1800f1e9b70010c0b300d5130700b0c0b30088
:102a2800afecb700f0c9bf000080fb00000f7800d2
:102a38001e007800e40f50008e0032001e0078005f
:102a4800e40f50000a003c001e007800e20f50001e
:102a58001c0032001e007800e20f50007a003c0093
:102a68001e007800e10f50000b003200de00370036
:102a78001e007800e60f5000d00032001e007800db
:102a8800e60f5000bd0035001e007800e70f50002b
:102a9800c5003200d400370000c8b300b4130700e3
:102aa800a0012000f413070050ccb300b0130700b6
:102ab80020c0b300f0e9b7000040eb00f1e9b7002f
:102ac800c9003700f0c0b300a913070094ccbf00b9
:102ad800e14f5000c4003a009c05070093ecb70092
:102ae80031c9200091407800f0c2b30080cf500077
:102af8005300360031c920009140780090c3b300dc
:102b080080cf50004e003e00f1c9bf00e34f500097
:102b180009003e00f1c9bf008080fb0032c92000d7
:102b280012417800609c2000008040000248780034
:102b380093ccbf00ac130700f1c9bf00e24f5000af
:102b48003c0036000040eb00acecb7001300370047
:102b5800acccbf000084fb00acccbf000080fb0005
:102b68000080e8006d1707008040780000cb200047
:102b78000000440001487800acccbf008080fb0016
:102b880000cb20000080400010407800961307001a
:102b9800acccbf000040e800acecb700acccbf0048
:102ba800e34f5000eaff3600619c20009140780016
:102bb800b0ccbf0080cf500016003a00719c2000b6
:102bc80091407800b1ccbf0080cf500011003a008e
:102bd800819c200091407800b2ccbf0080cf50008b
:102be8000c003a00919c200091407800b3ccbf00c3
:102bf80080cf500007003a00c0c0b3005c13070044
:102c080010c0b3005a13070030c0b300f0e9b70092
:102c180008003700c0c0b3005513070070c0b300e8
:102c2800f0e9b7000040eb00f1e9b70010c0b300cd
:102c38004f130700f1c9bf000040e800f1e9b700f1
:102c48003d0507006800370000c8b30048130700b7
:102c5800b00120008813070050ccb30044130700cc
:102c680040c0b300f0e9b7000040eb00f1e9b7005d
:102c78005d003700f0c0b3003d13070094ccbf00df
:102c8800e14f500058003a003005070093ecb700b8
:102c980031c9200091407800f0c2b30080cf5000c5
:102ca8003400360031c920009140780090c3b30049
:102cb80080cf50002f003e00f1c9bf00e34f500005
:102cc80009003e00f1c9bf008080fb0032c9200026
:102cd80012417800609c2000008040000248780083
:102ce80093ccbf0040130700f1c9bf00e24f50006a
:102cf8001d0036000040eb00acecb7000f003700b9
:102d0800acccbf000080fb000080e8000001780028
:102d1800acccbf008080fb00609c2000008040009d
:102d2800104078000080fb0082007800da16070067
:102d3800acccbf000040e800acecb700acccbf00a6
:102d4800e34f5000eeff3600c0c0b3000813070081
:102d580050c0b300f0e9b7000040eb00f1e9b7005c
:102d680010c0b30002130700f1c9bf000040e8001b
:102d7800f1e9b700f00407001b00370000c8b300f2
:102d8800fb120700b00120003b13070040ccb30042
:102d9800f7120700c00120003713070060c0b30016
:102da800f0e9b70010003700b07028004e13070094
:102db80060c0b300f0e9b7000b003700c012200074
:102dc8003d010700e842a900c05d20003a01070064
:102dd80010c0b300e612070010c0b300f0e9b70056
:102de800b0c0b300afecb7004f0478000080fa0021
:102df800000006000200fa00881f7800c9040700d6
:102e080094ecb70094ccbf00e14f500016003a0094
:102e1800ce04070093ecb70031c920009140780038
:102e280030c4b30080cf50000f003a0010c0b30088
:102e3800cf120700c0c0b300cd12070010c0b30006
:102e4800f0e9b70010c0b30095ecb700b0c0b3000c
:102e5800afecb700b804070010c0b300c4120700f5
:102e6800c0c0b300c2120700f0c9bf000080fb0059
:102e7800000f78001e007800e40f50007200320046
:102e88001e007800e40f50000a003c001e00780085
:102e9800e20f50002d0032001e007800e20f5000b3
:102ea8004c003c001e007800e10f50000b0032007f
:102eb800fb0037001e007800e60f5000e4003200e7
:102ec8001e007800e60f5000ca0035001e0078008a
:102ed800e70f5000ee003200f10037000040eb0031
:102ee800aeecb70009003700aeccbf008080fb0015
:102ef800009e20008080400000c2b3008048780017
:102f0800aeccbf000040e800aeecb700aeccbf00ce
:102f1800ef4f5000f4ff360000c8b30094120700ca
:102f2800a0042000d412070020c0b300f0e9b700c5
:102f380000ccb3008e12070000ccb3008c1207003f
:102f4800c0122000dc000700d50037000040eb006d
:102f5800adecb70013003700adccbf000084fb0018
:102f6800adccbf000080fb004020b0006b1607000e
:102f780080407800009e200000004400014878004e
:102f8800adccbf008080fb00009e20000080400088
:102f98001040780094120700adccbf000040e80054
:102fa800adecb700adccbf00ef4f5000eaff3600e4
:102fb80000ccb3006e120700f0c0b3006c1207001b
:102fc80020032000bc00070030c0b300f0e9b700c0
:102fd800b300370000ccb30065120700f0c0b3009f
:102fe800631207009104070040c0b300f0e9b7007e
:102ff8000040eb00aeecb7000d003700aeccbf00d0
:103008000081fb00aeccbf008080fb00009e20004a
:10301800008040009040780010c820000000410067
:1030280001487800aeccbf000040e800aeecb70025
:10303800aeccbf00ef4f5000f0ff3600401f20001d
:103048009d0007009600370094ccbf00e14f500068
:1030580093003a003d04070093ecb70031c9200003
:103068009140780050c4b30080cf50002e003a0041
:103078000040eb00aeecb7000d003700aeccbf004f
:103088000081fb00aeccbf008080fb0010c8200090
:103098000080400090407800009e20000000410021
:1030a80001487800aeccbf000040e800aeecb700a5
:1030b800aeccbf00ef4f5000f0ff36000040eb00f1
:1030c800aeecb7000f003700aeccbf000080fb00ad
:1030d8004020b00000017800aeccbf008080fb002b
:1030e800009e200000804000104078000080fb0017
:1030f80082007800e8150700aeccbf000040e80069
:10310800aeecb700aeccbf00ef4f5000eeff36007c
:103118000904070010c0b3001512070050c0b3001f
:10312800f0e9b7005e00370031c92000914078000f
:1031380030c4b30080cf500059003a000040eb0083
:10314800aeecb7000d003700aeccbf000081fb002d
:10315800aeccbf008080fb0010c82000008040007b
:1031680090407800009e200000004100014878004f
:10317800aeccbf000040e800aeecb700aeccbf005c
:10318800ef4f5000f0ff36000040eb00aeecb70008
:103198000f003700aeccbf000080fb004020b0001d
:1031a80000017800aeccbf008080fb00009e2000ac
:1031b80000804000104078000080fb00820078000a
:1031c800b5150700aeccbf000040e800aeecb70074
:1031d800aeccbf00ef4f5000eeff3600d60307001d
:1031e80010c0b300e211070060c0b300f0e9b700f7
:1031f8002b0037001204070000c8b300dc110700d9
:10320800b00420001c12070060c0b300f0e9b7004a
:103218000040eb00aeecb70009003700aeccbf00b1
:103228008080fb00009d20008080400000c2b30029
:1032380080487800aeccbf000040e800aeecb70094
:10324800aeccbf00ef4f5000f4ff3600140037003b
:10325800c012200018000700e842a900401f200003
:103268001500070010c0b300c1110700c0c0b300ab
:10327800bf11070010c0b300f0e9b70010c0b300d9
:10328800bb110700d0c0b300afecb7000400370093
:10329800c07128001412070060c0b300f0e9b7003d
:1032a8004f0478000080fa00000006000000fa00d1
:1032b8000080fa00000006000600fa0020079800c7
:1032c8000000eb00000f78000d0037000000eb0055
:1032d80010079800030037001e0090000000e80067
:1032e800100798002e0090006300b9008000780055
:1032f8001e009000808f5000f7ff3e001e0fe80070
:10330800100320009e0f1000f0ff36000080fa0026
:0433180000000600ab
:020000040000fa
:10331c000200fa00cc22a800cc42a800cc62a80083
:10332c00cc82a800d202a900d222a900d242a900c4
:10333c00d262a900d282a800d2a2a800d2c2a80050
:10334c00d2e2a8000000eb00000f78002400370048
:10335c001e0078006a00b900800078008080200090
:10336c00808040000000eb00800878001e00780090
:10337c006a00b90080007800a080200080804000a6
:10338c000000eb00800878001e0078006a00b9008d
:10339c0080007800c0802000808040000000eb009e
:1033ac00800878001e0078006a00b9008000780060
:1033bc00e0802000808040000000eb008008780056
:1033cc001e0078006a00b90080007800008120009f
:1033dc00808040000000eb00800878001e0fe800a1
:1033ec00400120009e0f1000d9ff36000080fa002b
:1033fc00000006000200fa00cec2bf006840600068
:10340c000004e000020032000000eb00704688006f
:10341c00cec2bf00684060000004e00007003a0024
:10342c0070468000e20f500004003e0070468000a1
:10343c000000e8007046880011003700cec2bf00c3
:10344c00684060000004e0000d003a007046800007
:10345c00e20f50000a0036000000eb0070468800b6
:10346c00100020003046880010c0b300dae8b70026
:10347c0060c5b300dbe8b70010c0b300d71307007a
:10348c00cec2bf00704060000004e00002003200b9
:10349c000000eb00c0468800cec2bf007040600048
:1034ac000004e00007003a00c0468000e20f500024
:1034bc0004003e00c04680000000e800c0468800c2
:1034cc0015003700cec2bf00704060000004e00061
:1034dc0011003a00c0468000e20f50000e0036008a
:1034ec000000eb00c04688001000200080468800d9
:1034fc0010c0b300dae8b70040c5b300dbe8b70092
:10350c0010c0b300b513070000c8b30017110700b3
:10351c0040c5b30033110700cec2bf00624060004b
:10352c000004e000020032000000eb00d0458800ef
:10353c00cec2bf00624060000004e00007003a0009
:10354c00d0458000e20f500004003e00d0458000c2
:10355c000000e800d045880011003700cec2bf0043
:10356c00624060000004e0000d003a00d04580008d
:10357c00e20f50000a0036000000eb00d045880036
:10358c00100020009045880010c0b300dae8b700a6
:10359c00d0c4b300dbe8b70010c0b3008f13070032
:1035ac00cec2bf00644060000004e00002003200a4
:1035bc000000eb0020468800cec2bf0064406000d3
:1035cc000004e00007003a0020468000e20f5000a3
:1035dc0004003e00204680000000e80020468800e1
:1035ec0015003700cec2bf00644060000004e0004c
:1035fc0011003a0020468000e20f50000e00360009
:10360c000000eb002046880010002000e0458800f8
:10361c0010c0b300dae8b70030c5b300dbe8b70080
:10362c0010c0b3006d13070000c8b300cf10070023
:10363c0030c5b300eb100700dcc8bf000080fb00f6
:10364c00000f78001e007800e10f5000b00032002f
:10365c001e007800e10f500004003c001e007800b2
:10366c000000e000080032008f0237001e007800d6
:10367c00e20f5000480132001e007800e30f5000aa
:10368c00e701320088023700dcc8bf000080fb0075
:10369c0061c62000000040000100400010007800ce
:1036ac00a0168800a1168000000f2000008060008a
:1036bc00f0468800f1468000000e2000808f5000fc
:1036cc0007003a00d0408000e20f500004003e009a
:1036dc00d04080000000e800d04088000e00370089
:1036ec00f1468000000e2000808f500008003a0048
:1036fc00d0408000e20f50000500360010c0b3002f
:10370c00dde8b70010c0b300e0e8b70002003700f6
:10371c000000eb00d0408800f1468000000d200036
:10372c00808f500007003a0020418000e20f5000cb
:10373c0004003e00204180000000e8002041880089
:10374c000e003700f1468000000d2000808f5000e5
:10375c0008003a0020418000e20f500005003600be
:10376c0020c0b300dde8b70010c0b300e0e8b7003c
:10377c00020037000000eb0020418800f146800079
:10378c00000b2000808f500007003a007041800031
:10379c00e20f500004003e00704180000000e80081
:1037ac00704188000e003700f1468000000b2000ad
:1037bc00808f500008003a0070418000e20f5000ea
:1037cc000500360030c0b300dde8b70010c0b30010
:1037dc00e0e8b700020037000000eb007041880001
:1037ec00f146800000072000808f500007003a004f
:1037fc00c0418000e20f500004003e00c041800038
:10380c000000e800c04188000e003700f14680003f
:10381c0000072000808f500008003a00c041800053
:10382c00e20f50000500360040c0b300dde8b700e1
:10383c0010c0b300e0e8b700020037000000eb0056
:10384c00c0418800e0c8bf00e14f50000b003a00b7
:10385c00f1468000000f2000808f500007003a00d6
:10386c0020478000e20f500004003e0020478000fb
:10387c000000e8002047880023003700e0c8bf00a4
:10388c00e14f500020003a00f1468000000f20006c
:10389c00808f50001c003a0020478000e20f50003f
:1038ac001900360010c0b300dae8b700ddc8bf005d
:1038bc000080fb006a00b900800078008080200046
:1038cc00808040001000200080087800ddc8bf0018
:1038dc008080fb00e0c62000008040001040780093
:1038ec00dbe8b7000040eb00e0e8b70010c0b30025
:1038fc00ba1207000040eb00dde8b7000000eb0057
:10390c0020478800ea01370010c0b300dce8b7009c
:10391c00dcc8bf000080fb0061c620000000400036
:10392c000100400010007800a0168800a11680004d
:10393c00000f200000806000f0468800f1468000f7
:10394c00000e2000808f500007003a0010428000cb
:10395c00e20f500004003e00104280000000e8001e
:10396c00104288000e003700f1468000000e200047
:10397c00808f500008003a0010428000e20f500087
:10398c000500360050c0b300dde8b70010c0b3002e
:10399c00e1e8b700020037000000eb00104288009d
:1039ac00f1468000000d2000808f500007003a0087
:1039bc0060428000e20f500004003e006042800034
:1039cc000000e800604288000e003700f1468000dd
:1039dc00000d2000808f500008003a0060428000eb
:1039ec00e20f50000500360060c0b300dde8b70000
:1039fc0010c0b300e1e8b700020037000000eb0094
:103a0c0060428800f1468000000b2000808f50003f
:103a1c0007003a00b0428000e20f500004003e0064
:103a2c00b04280000000e800b04288000e00370071
:103a3c00f1468000000b2000808f500008003a00f7
:103a4c00b0428000e20f50000500360070c0b30099
:103a5c00dde8b70010c0b300e1e8b70002003700a2
:103a6c000000eb00b0428800f14680000007200007
:103a7c00808f500007003a0000438000e20f500096
:103a8c0004003e00004380000000e8000043880072
:103a9c000e003700f146800000072000808f500098
:103aac0008003a0000438000e20f50000500360089
:103abc0080c0b300dde8b70010c0b300e1e8b70088
:103acc00020037000000eb0000438800e1c8bf0093
:103adc00e14f50000b003a00f1468000000f20002f
:103aec00808f500007003a0030478000e20f5000f2
:103afc0004003e00304780000000e800304788009a
:103b0c0023003700e1c8bf00e14f500020003a000d
:103b1c00f1468000000f2000808f50001c003a00fe
:103b2c0030478000e20f50001900360010c0b3007f
:103b3c00dae8b700ddc8bf000080fb006a00b900fe
:103b4c0080007800808020008080400010002000e1
:103b5c0080087800ddc8bf008080fb00e0c6200034
:103b6c000080400010407800dbe8b7000040eb001c
:103b7c00e1e8b70010c0b300181207000040eb00da
:103b8c00dde8b7000000eb00304788004801370043
:103b9c0020c0b300dce8b700dcc8bf000080fb002d
:103bac0061c62000000040000100400010007800b9
:103bbc00a0168800a1168000000f20000080600075
:103bcc00f0468800f1468000000e2000808f5000e7
:103bdc0007003a0050438000e20f500004003e0002
:103bec00504380000000e800504388000e0037006e
:103bfc00f1468000000e2000808f500008003a0033
:103c0c0050438000e20f50000500360090c0b30016
:103c1c00dde8b70010c0b300e2e8b70002003700df
:103c2c000000eb0050438800f1468000000d20009e
:103c3c00808f500007003a00a0438000e20f500034
:103c4c0004003e00a04380000000e800a043880070
:103c5c000e003700f1468000000d2000808f5000d0
:103c6c0008003a00a0438000e20f50000500360027
:103c7c00a0c0b300dde8b70010c0b300e2e8b700a5
:103c8c00020037000000eb00a0438800f1468000e2
:103c9c00000b2000808f500007003a00f04380009a
:103cac00e20f500004003e00f04380000000e800ea
:103cbc00f04388000e003700f1468000000b200016
:103ccc00808f500008003a00f0438000e20f500053
:103cdc0005003600b0c0b300dde8b70010c0b3007b
:103cec00e2e8b700020037000000eb00f043880068
:103cfc00f146800000072000808f500007003a003a
:103d0c0040448000e20f500004003e00404480001c
:103d1c000000e800404488000e003700f1468000a7
:103d2c0000072000808f500008003a0040448000bb
:103d3c00e20f500005003600c0c0b300dde8b7004c
:103d4c0010c0b300e2e8b700020037000000eb003f
:103d5c0040448800e2c8bf00e14f50000b003a001d
:103d6c00f1468000000f2000808f500007003a00c1
:103d7c0040478000e20f500004003e0040478000a6
:103d8c000000e8004047880023003700e2c8bf006d
:103d9c00e14f500020003a00f1468000000f200057
:103dac00808f50001c003a0040478000e20f50000a
:103dbc001900360010c0b300dae8b700ddc8bf0048
:103dcc000080fb006a00b900800078008080200031
:103ddc00808040001000200080087800ddc8bf0003
:103dec008080fb00e0c6200000804000104078007e
:103dfc00dbe8b7000040eb00e2e8b70010c0b3000e
:103e0c00761107000040eb00dde8b7000000eb0086
:103e1c0040478800a600370030c0b300dce8b7008c
:103e2c00dcc8bf000080fb0061c620000000400021
:103e3c000100400010007800a0168800a116800038
:103e4c00000f200000806000f0468800f1468000e2
:103e5c00000e2000808f500007003a009044800034
:103e6c00e20f500004003e00904480000000e80087
:103e7c00904488000e003700f1468000000e2000b0
:103e8c00808f500008003a0090448000e20f5000f0
:103e9c0005003600d0c0b300dde8b70010c0b30099
:103eac00e3e8b700020037000000eb009044880004
:103ebc00f1468000000d2000808f500007003a0072
:103ecc00e0448000e20f500004003e00e04480001b
:103edc000000e800e04488000e003700f146800046
:103eec00000d2000808f500008003a00e044800054
:103efc00e20f500005003600e0c0b300dde8b7006b
:103f0c0010c0b300e3e8b700020037000000eb007c
:103f1c00e0448800f1468000000b2000808f5000a8
:103f2c0007003a0030458000e20f500004003e00cc
:103f3c00304580000000e800304588000e00370056
:103f4c00f1468000000b2000808f500008003a00e2
:103f5c0030458000e20f500005003600f0c0b30081
:103f6c00dde8b70010c0b300e3e8b700020037008b
:103f7c000000eb0030458800f1468000000720006f
:103f8c00808f500007003a0080458000e20f5000ff
:103f9c0004003e00804580000000e8008045880059
:103fac000e003700f146800000072000808f500083
:103fbc0008003a0080458000e20f500005003600f2
:103fcc0000c1b300dde8b70010c0b300e3e8b700f0
:103fdc00020037000000eb0080458800e3c8bf00fa
:103fec00e14f50000b003a00f1468000000f20001a
:103ffc00808f500007003a0050478000e20f5000bd
:10400c0004003e00504780000000e8005047880044
:10401c0023003700e3c8bf00e14f500020003a00f6
:10402c00f1468000000f2000808f50001c003a00e9
:10403c0050478000e20f50001900360010c0b3004a
:10404c00dae8b700ddc8bf000080fb006a00b900e9
:10405c0080007800808020008080400010002000cc
:10406c0080087800ddc8bf008080fb00e0c620001f
:10407c000080400010407800dbe8b7000040eb0007
:10408c00e3e8b70010c0b300d41007000040eb0009
:10409c00dde8b7000000eb00504788000400370053
:1040ac000040eb00dce8b7000040eb00dce8b700b8
:1040bc000080fa00000006000400fa0010c0b300f3
:1040cc00004f780040c1b3009e4f10000b003e0023
:1040dc001e80fb006a00b900800078008080200000
:1040ec000080400010007800e10f500003003a00ff
:1040fc001e80fb0010079800020037000000eb0048
:10410c00100798001e0090000080fa0000000600c6
:10411c000000fa00808020000080fa0000000600f9
:10412c000000fa00dac8bf000080fb000080fa0033
:10413c00000006000000fa000040eb00dae8b700cf
:10414c000080fa00000006000000fa00dbc8bf0087
:10415c000080fb000080fa00000006000200fa005c
:10416c0010002000000f7800220037001e0078009d
:10417c0002c8200012417800824178006300b90027
:10418c0080007800d08e200000804000034878002a
:10419c000240e80080ecb7001e00780002c8200046
:1041ac0012417800824178006300b90080007800e9
:1041bc00e08e200000804000034878000240e800b8
:1041cc0080ecb7001e00780002c820001241780075
:1041dc00824178006300b90080007800f08e2000e6
:1041ec0000804000034878000240e80080ecb700f3
:1041fc001e0fe800900020009e0f1000dbff360021
:10420c0000c2b300ede8b7000040eb00eee8b700e9
:10421c000040eb00efe8b7000040eb000ae9b70004
:10422c000080fa00000006000000fa0010c0b30085
:10423c0000e8b7000080fa00000006000000fa0059
:10424c000040eb0000e8b7000000eb0010408800d5
:10425c000000eb00204088000040eb00ece8b700c9
:10426c000040eb0006e8b7000040eb0007e8b700a1
:10427c0010c4b30080ecb7000080fa000000060008
:10428c000000fa0000c8bf000080fb000080fa00ac
:10429c00000006000400fa00dac8bf00e14f50002d
:1042ac0006003a00b18d20009140780030c4b30074
:1042bc0080cf500001003a00e0ff070007c8bf00a4
:1042cc000080fb00100798001e0090000000e0002a
:1042dc00040032001e009000e10f50003e0032003e
:1042ec0085013700dac8bf00e14f500082013a0067
:1042fc00b18d200091407800c0c4b30080cf500035
:10430c000b003a00ecc8bf000004e00003003200d0
:10431c00ecc8bf000040e900ece8b70000c1b300f6
:10432c00920d07000040eb00dae8b700720137008d
:10433c00b18d20009140780020c5b30080cf500093
:10434c000b003a00ecc8bf00ef4f500003003e00da
:10435c00ecc8bf000040e800ece8b70040c1b30077
:10436c00820d07000040eb00dae8b700620137006d
:10437c00b18d20009140780050c4b30080cf500024
:10438c0009003a00c0c0b300780d07000000eb0034
:10439c00104088000000eb00204088000040eb003b
:1043ac00ece8b70054013700ecc8bf00804078003f
:1043bc0000ccb30000c040006c0d0700f0c0b3008f
:1043cc006a0d0700dbc8bf0006e8b70010c0b300d9
:1043dc0007e8b70048013700b18d20009140780004
:1043ec0006c8bf0080cf500001013a001140800088
:1043fc0010032000808f5000fd003e001040800014
:10440c000000e80010408800dac8bf00e14f5000ff
:10441c0039013a000000eb0010408800b18d2000fb
:10442c0091407800f0c2b30080cf5000b800360045
:10443c00b18d20009140780090c3b30080cf500024
:10444c00b3003e0020408000000f78001e00780072
:10445c00e10f5000190032001e007800e10f5000ef
:10446c00070039001e007800e20f500034003200c3
:10447c001e007800e30f50006c003200a4003700df
:10448c00ecc8bf008080fb00b28d20001241780088
:10449c0010c820000080400002487800dbc8bf0034
:1044ac00500d070000c1b300300d07002040800004
:1044bc000000e8002040880095003700dbc8bf00f2
:1044cc008080fb0000fd2f00008040006300b900dd
:1044dc0080007800d08e20000080400010407800d2
:1044ec00400d0700204080000000e80020408800bc
:1044fc000040eb00dae8b70000c1b3001b0d070069
:10450c00ecc8bf000081fb00dbc8bf008080fb0053
:10451c0000fd2f00008040006300b900800078008f
:10452c00d08e200000804000104078008040780041
:10453c0010c82000000041000148780074003700ca
:10454c00dbc8bf008080fb0000fd2f000080400016
:10455c006300b90080007800e08e200000804000ed
:10456c00104078000004e0000f003a00ecc8bf00d7
:10457c008080fb00b28d20001241780010c8200012
:10458c000080400002487800dbc8bf00150d070012
:10459c0000c1b300f50c0700204080000000e800cb
:1045ac00204088005a003700dbc8bf008080fb0029
:1045bc0000fd2f00008040006300b90080007800ef
:1045cc00e08e20000080400010407800050d0700b0
:1045dc00204080000000e800204088000040eb00f4
:1045ec00dae8b70000c1b300e00c0700ecc8bf006c
:1045fc000081fb00dbc8bf008080fb0000fd2f00aa
:10460c00008040006300b90080007800e08e20003c
:10461c0000804000104078008040780010c82000d6
:10462c00000041000148780039003700dbc8bf00aa
:10463c008080fb0000fd2f00008040006300b9006b
:10464c008080e800d08e2000008040001040780070
:10465c000004e0000f003a00ecc8bf008080fb00b3
:10466c00b28d20001241780010c82000008040005c
:10467c0002487800dbc8bf00da0c070000c1b300a9
:10468c00ba0c0700204080000000e80020408800a1
:10469c001f003700dbc8bf008080fb0000fd2f002f
:1046ac00008040006300b9008080e800d08e2000bc
:1046bc000080400010407800ca0c07000000eb009e
:1046cc00204088000040eb00dae8b70000c1b300de
:1046dc00a60c0700ecc8bf000081fb00dbc8bf00c4
:1046ec008080fb0000fd2f00008040006300b900bb
:1046fc008080e800d08e20000080400010407800c0
:10470c008040780010c8200000004100014878006b
:10471c00b18d200091407800c0c4b30080cf500010
:10472c000d003a00ecc8bf000004e00003003200aa
:10473c00ecc8bf000040e900ece8b70000c1b300d2
:10474c008a0c07000040eb00dae8b7000040eb00f1
:10475c0007e8b70023003700b18d200091407800a6
:10476c0020c5b30080cf50000d003a00ecc8bf004c
:10477c00ef4f500003003e00ecc8bf000040e800c3
:10478c00ece8b70040c1b300780c07000040eb0028
:10479c00dae8b7000040eb0007e8b700110037007b
:1047ac00b18d20009140780050c4b30080cf5000f0
:1047bc000c003a00c0c0b3006c0c07000040eb00ca
:1047cc00dae8b7000000eb00104088000000eb00b6
:1047dc00204088000040eb0007e8b7000040eb00e9
:1047ec00ece8b7000040eb00dae8b7004200370015
:1047fc00b18d20009140780006c8bf0080cf5000da
:10480c0028003200b18d200091407800c0c4b30064
:10481c0080cf500011003a00ecc8bf000004e0004b
:10482c0003003200ecc8bf000040e900ece8b70020
:10483c000040eb00dae8b70000c1b3004b0c0700f6
:10484c000000eb00104088000000eb0020408800c6
:10485c000040eb0007e8b70027003700ecc8bf00aa
:10486c00ef4f500004003e00ecc8bf000040e800d1
:10487c00ece8b700020037000040eb00ece8b700b2
:10488c0040c1b300390c07000000eb001040880059
:10489c000000eb00204088000040eb0007e8b70068
:1048ac00150037001140800010032000808f50004d
:1048bc0011003600ecc8bf00ef4f500004003e0062
:1048cc00ecc8bf000040e800ece8b700020037007d
:1048dc000040eb00ece8b7000000eb001040880053
:1048ec000040eb0007e8b7000000eb002040880018
:1048fc0040c1b3001d0c07000080fa000000060048
:020000040000fa
:10490c000600fa00460137007162200091407800e1
:10491c00c0cfb30000c0600027e6b7002031800094
:10492c00206888007162200091407800c0cfb300ed
:10493c0000c060000004a00027e6b7002031800012
:10494c00306888007162200091407800c0cfb300bd
:10495c0000c060000014a00027e6b70020318000e2
:10496c004068880027c6bf003040b30027e6b70078
:10497c0020318000506888007162200091407800de
:10498c00c0cfb30000c0600027e6b7002031800024
:10499c00606888007162200091407800c0cfb3003d
:1049ac0000c060000004a00027e6b70020318000a2
:1049bc00706888007162200091407800c0cfb3000d
:1049cc0000c060000014a00027e6b7002031800072
:1049dc008068880027c6bf003040b30027e6b700c8
:1049ec002031800090688800216880006068800019
:1049fc00808f50000a013a00316880007068800096
:104a0c00808f500006013a00416880008068800069
:104a1c00808f500002013a0051688000906880003d
:104a2c00808f5000fe003a0009cdbf000080fb00d3
:104a3c006101b900e0ff2f00f1ff2f0002014000df
:104a4c00838148001207980023079800000120007a
:104a5c00010020001e019000ae019000800f51005b
:104a6c00818f590014003e001e009000ae00900093
:104a7c0000600100170037001d00370023003700cd
:104a8c00290037002f003700350037003b00370076
:104a9c0041003700080037000700370006003700d8
:104aac0005003700040037000300370041003700d1
:104abc00470037004d003700a0c4b30046ecb700e8
:104acc0010c6b30047ecb700e0c6b30048ecb70023
:104adc004c00370060c4b30046ecb70050c6b300be
:104aec0047ecb70020c6b30048ecb70045003700d0
:104afc00d0c4b30046ecb70010c6b30047ecb70007
:104b0c0020c7b30048ecb7003e00370010c4b30018
:104b1c0046ecb70000c7b30047ecb70020c7b300a2
:104b2c0048ecb70037003700d0c4b30046ecb700f0
:104b3c0010c6b30047ecb70090c7b30048ecb70001
:104b4c0030003700a0c4b30046ecb70050c7b30028
:104b5c0047ecb700e0c6b30048ecb70029003700bb
:104b6c00a0c4b30046ecb70050c7b30047ecb70085
:104b7c00c0c6b30048ecb7002200370010c4b30025
:104b8c0046ecb70050c7b30047ecb70070c6b30093
:104b9c0048ecb7001b00370030c5b30046ecb7003b
:104bac0050c6b30047ecb70000c7b30048ecb700e1
:104bbc0014003700f0c4b30046ecb70030c6b300a5
:104bcc0047ecb70040c7b30048ecb7000d00370006
:104bdc00e0c4b30046ecb700f0c6b30047ecb70036
:104bec0060c7b30048ecb7000600370040c4b30000
:104bfc0046ecb70050c6b30047ecb70030c6b30064
:104c0c0048ecb70000c2b30049ecb700c0c2b30017
:104c1c004cecb70000c2b3004decb70020c3b3009e
:104c2c004eecb70000c3b3004fecb70008cdbf008b
:104c3c000080fb004400de000043b0004aecb700eb
:104c4c0008cdbf006f4060000043b0004becb700d4
:104c5c000acdbf000080fb004400de000043b00022
:104c6c0050ecb7000acdbf006f4060000043b000ad
:104c7c0051ecb70007cdbf000080fb00000f78009f
:104c8c009e007800e38f5000280032001e0178004f
:104c9c00e30f510007003c009e017800e18f5100aa
:104cac00140032001e007800e20f50001800320091
:104cbc00090037009e007800e58f50002900320073
:104ccc001e017800e50f51001f0035009e01780091
:104cdc00e68f51002a00320030c5b30036ecb70025
:104cec0050c7b30037ecb700e0c6b30038ecb700e0
:104cfc0029003700d0c4b30036ecb700f0c6b300bf
:104d0c0037ecb700e0c6b30038ecb7002200370030
:104d1c0040c5b30036ecb70050c7b30037ecb70052
:104d2c0050c6b30038ecb7001b00370070c5b30099
:104d3c0036ecb70050c6b30037ecb70040c6b30032
:104d4c0038ecb7001400370040c5b30036ecb700a0
:104d5c0080c6b30037ecb70050c7b30038ecb700cf
:104d6c000d00370060c4b30036ecb70020c7b300a9
:104d7c0037ecb70090c6b30038ecb700060037002c
:104d8c0030c5b30036ecb70010c6b30037ecb70033
:104d9c0040c7b30038ecb70000c2b30039ecb70021
:104dac00a0c3b3003cecb700a0c3b3003fecb7000a
:104dbc0006cdbf000080fb004400de000043b000c5
:104dcc003aecb70006cdbf006f4060000043b00066
:104ddc003becb70005cdbf000080fb004400de00bb
:104dec000043b0003decb70005cdbf006f40600044
:104dfc000043b0003eecb70004cdbf000080fb00c8
:104e0c004400de000043b00040ecb70004cdbf000e
:104e1c006f4060000043b00041ecb7000300370066
:104e2c0014cdbf000004e000b7fe320008cdbf0077
:104e3c000080fb004400de000043b00056ecb700dd
:104e4c0008cdbf006f4060000043b00057ecb700c6
:104e5c00f0c2b30058ecb70009cdbf000080fb00d6
:104e6c004400de000043b00059ecb70009cdbf0090
:104e7c006f4060000043b0005aecb700f0c2b300c2
:104e8c005becb70020c3b3005cecb70000c3b3000d
:104e9c005decb7000acdbf000080fb004400de00d3
:104eac000043b0005eecb7000acdbf006f4060005d
:104ebc000043b0005fecb70000c2b30060ecb70079
:104ecc0006cdbf000080fb004400de000043b000b4
:104edc0061ecb70006cdbf006f4060000043b0002e
:104eec0062ecb700a0c3b30063ecb70005cdbf0004
:104efc000080fb004400de000043b00064ecb7000f
:104f0c0005cdbf006f4060000043b00065ecb700fa
:104f1c000080fa00000006001600fa002174200040
:104f2c0020c0b30062c4b30073c5b30082487800dc
:104f3c0083487800804878000000eb00303188000e
:104f4c005501070027e6a80027e6a80030c3b300e8
:104f5c000000fb006f0060004400dd008040780022
:104f6c0020c3b3006f40600000c070002047980061
:104f7c0010c3b3000000fb006f0060004400dd00b4
:104f8c008040780020c3b3006f40600000c0700008
:104f9c003047980010c3b3000000fb006f006000a6
:104fac004400dd008040780090c3b3006f40600087
:104fbc0000c070004047980000c2b3000000fb0026
:104fcc006f0060004400dd008040780050c3b300e7
:104fdc006f40600000c070007047980010c3b300b1
:104fec000000fb006f0060004400dd008040780092
:104ffc0070c3b3006f40600000c070005047980051
:10500c00a0c4b3000000fb00000f9800a004200017
:10501c008e089000808f500027003200a0042000e2
:10502c000e099000800f51000d003c004004200040
:10503c008e099000808f51007000320060042000b7
:10504c008e089000808f50003c003200100420002d
:10505c000e099000800f51004d003200690037009e
:10506c00e00420008e099000808f51006000320017
:10507c00e00420008e089000808f500005003c005a
:10508c00d00420000e099000800f51002e00320039
:10509c005c003700f00420008e099000808f5100d6
:1050ac0050003200300520008e089000808f500098
:1050bc00490032005300370050c7b3000000fb001a
:1050cc0070079800100620007e019000800f5100a0
:1050dc000500320050072000fe019000808f510027
:1050ec00040032004700370010c0b300604798003e
:1050fc0044003700c0c6b3000000fb0060079800f6
:10510c00c0062000ee009000808f50000800320096
:10511c00e00620006e019000800f5100010032006b
:10512c003800370060c0b300604798003500370086
:10513c0070c0b300604798003200370020c0b30045
:10514c00604798002f003700c0c6b3000000fb007a
:10515c005007980020072000de019000808f51003e
:10516c000500320090072000de009000808f500078
:10517c00040032002300370030c0b30060479800b1
:10518c002000370050c0b300604798001d00370066
:10519c0050c7b3000000fb00400798000007200038
:1051ac004e019000800f5100050032005007200086
:1051bc00ce019000808f51000400320011003700a6
:1051cc0040c0b300604798000e00370080c0b300a9
:1051dc00604798000b00370090c0b3006047980000
:1051ec000800370000c1b300604798000500370085
:1051fc0010c1b300604798000200370020c1b30013
:10520c00604798002e4090000cedb70010c0b30022
:10521c0014edb7003e4090000dedb70010c0b30088
:10522c0014edb7004e4090000eedb70010c0b30067
:10523c0014edb7007e40900010edb70010c0b30025
:10524c0014edb7006e40900011edb70010c0b30024
:10525c0014edb7005e40900012edb70010c0b30023
:10526c0014edb70060002000000f78005e40900045
:10527c000000fb004480de000000fb006a00b90067
:10528c00800078005e4090000000fb006f00600022
:10529c00008040001e0f40005e4090000000fb00ac
:1052ac004480de000000fb006a00b900800078003a
:1052bc005e4090000000fb006f0060004200200088
:1052cc00811f7800110009000200d800010178004c
:1052dc00cf007800008040001e0f40006e40900010
:1052ec000000fb006101b9000080eb008080eb0046
:1052fc000201400083814800120f9800230f980090
:10530c0010012000010020001e099000ae09900041
:10531c00800f5100818f590024003e001e08900020
:10532c00ae0890000060010020003700100037002c
:10533c000f0037001100370013003700140037003e
:10534c000e00370015003700160037001700370025
:10535c001600370015003700140037001300370013
:10536c001200370011003700010037000d00370024
:10537c009e007800638f40000c0037001e017800ff
:10538c00660f4100090037001e0fe80007003700c8
:10539c009e017800648f4100040037001e8fe800e6
:1053ac00020037001e007800650f40007e40900020
:1053bc000000fb004480de000000fb006a00b90026
:1053cc00800078007e4090000000fb006f006000c1
:1053dc00008040001e0f40001e007800720020006c
:1053ec00110009000200d8008000fd00000f7800b9
:1053fc001e0078000fedb70010c0b30014edb7001d
:10540c00020007000080fa00000006000000fa000d
:10541c00210007007162200091407800c0cfb300da
:10542c0000c0600027e6b70060688000203188006b
:10543c007162200091407800c0cfb30000c06000c2
:10544c000004a00027e6b7007068800020318800b7
:10545c007162200091407800c0cfb30000c06000a2
:10546c000014a00027e6b700806880002031880077
:10547c0027c6bf003040b30027e6b7009068800015
:10548c002031880027a6a9000040eb0014edb700de
:10549c000080fa00000006000000fa000500fc0085
:1054ac0057052000373b8800a80a2000383b8800ad
:1054bc0027a6a80000000000000000000080fa00f1
:1054cc00000006000200fa00004f780000c0eb005c
:1054dc009e4f100002003a00b0c3b300004f78009a
:1054ec00c0c3b3009e4f100002003a000040eb0016
:1054fc00004f78001e80fb00a20020001100090064
:10550c000280d8000080fb004400dd008040780061
:10551c001e80fb00a2002000811f780011000900f2
:10552c000280d8000001780001007800cf007800dc
:10553c0000c070000cedb70010c0b30014edb70044
:10554c000080fa00000006000200fa00004f78000c
:10555c0000c0eb009e4f100002003a00b0c3b30035
:10556c00004f7800c0c3b3009e4f100002003a00f9
:10557c000040eb00004f78001e80fb00a2002000d2
:10558c00110009000280d8000080fb004400dd00ff
:10559c00804078001e80fb00a2002000811f780054
:1055ac00110009000280d800000178000100780089
:1055bc00cf00780000c070000dedb70010c0b30034
:1055cc0014edb7000080fa00000006000200fa009b
:1055dc00004f780000c0eb009e4f100002003a0014
:1055ec0070c1b300004f780080c1b3009e4f100013
:1055fc0002003a000040eb00004f78001e80fb00d8
:10560c00a2002000110009000280d8000080fb00dd
:10561c004400dd00804078001e80fb00a2002000ca
:10562c00811f7800110009000280d8000001780069
:10563c0001007800cf00780000c070000eedb700bc
:10564c0010c0b30014edb7000080fa000000060093
:10565c000800fa0012cdbf000080fb004400de0001
:10566c000080fb006a00b9008000780012cdbf00fa
:10567c000080fb006f006000008040003007980045
:10568c0011cdbf000080fb004400de000080fb0059
:10569c006a00b9008000780011cdbf000080fb00cb
:1056ac006f006000008040002007980010cdbf0004
:1056bc000080fb004400de000080fb006a00b900a3
:1056cc008000780010cdbf000080fb006f006000f0
:1056dc0000804000100798003e009000c200de00e1
:1056ec003e00900000804000660f40002e009000ad
:1056fc008000e90080732800614078000000fb0006
:10570c001e0f40001e0090001e0f40003e00900037
:10571c00630060000000e00004003a002e009000de
:10572c00e20f500001003e001e0fe9001e00780041
:10573c0072002000110009000280d8008000fd00da
:10574c00000f78001e0078000fedb70010c0b300fa
:10575c0014edb7000080fa00000006000800fa0003
:10576c006047980011cdbf000080fb004400de00b4
:10577c000080fb006a00b9008000780011cdbf00ea
:10578c000080fb006f006000008040001007980054
:10579c0012cdbf000080fb004400de000080fb0047
:1057ac006a00b9008000780012cdbf000080fb00b9
:1057bc006f00600000804000000f78001e00900019
:1057cc008000e90040742800614078000000fb0074
:1057dc00200798001e009000e20f500007003a00ce
:1057ec009e007800638060000000e00003003a0037
:1057fc002e0090000000e800200798006e409000fa
:10580c000004e00002003a002e009000604798006f
:10581c006e4090008080fb002e009000808f500026
:10582c000200360010c0b300604798006e40900034
:10583c000080fb00a2002000110009000280d800ab
:10584c000080fb004400dd00804078006e4090003a
:10585c000080fb00a2002000811f780011000900cd
:10586c000280d8000001780001007800cf00780099
:10587c0000c0700010edb70010c0b30014edb700fd
:10588c000080fa00000006000200fa00004f7800c9
:10589c001e04e00002003a00c0c0b300004f7800c4
:1058ac00c0c0b3009e4f10000200360010c0b30001
:1058bc00004f78001e80fb00a200200011000900a0
:1058cc000280d8000080fb004400dd00804078009e
:1058dc001e80fb00a2002000811f7800110009002f
:1058ec000280d8000001780001007800cf00780019
:1058fc0000c0700011edb70010c0b30014edb7007c
:10590c000080fa00000006000200fa00004f780048
:10591c0000c0eb009e4f100002003a0030c6b300ee
:10592c00004f780040c6b3009e4f100002003a00b2
:10593c000040eb00004f78001e80fb00a20020000e
:10594c00110009000280d8000080fb004400dd003b
:10595c00804078001e80fb00a2002000811f780090
:10596c00110009000280d8000001780001007800c5
:10597c00cf00780000c0700012edb70010c0b3006b
:10598c0014edb70010cdbf000080fb004400de001a
:10599c000080fb006a00b9008040780010cdbf0089
:1059ac006f40600000c040006cff07000080fa00f0
:0459bc0000000600e1
:020000040000fa
:1059c0000000fa0010608000530607002060880085
:1059d000206080000080fa00000006000000fa004d
:1059e000881f780010608000e70f500015003e000f
:1059f000106080008000400060c0200000804000f7
:105a0000100078004600de00614060000004e00005
:105a100008003a0018608000106080003e06070011
:105a2000000178008800440060d32000008040001e
:105a300002087800106080000000e8001060880014
:105a4000020037000000eb00106088004f0478006f
:105a50000080fa00000006000000fa00fe040700c3
:105a6000fcebb700fccbbf000080fb0061006000d6
:105a70000004e00003003200d1ff0700d05f88007f
:105a800002003700a00f2000d05f88000040eb002c
:105a9000fdebb7001a003700fdcbbf000080fb0014
